:0C800000F8B500BFF8BC08BC9E467047F5
:10804000024B13B1024800F0F7B87047000000007F
:10805000658200000348044B834202D0034B03B106
:108060001847704700AA010000AA010000000000A4
:10807000054806490B1AD90F01EBA301491002D09C
:10808000034B03B11847704700AA010000AA010082
:108090000000000010B5064C237843B9FFF7DAFF63
:1080A000044B13B10448AFF300800123237010BDCB
:1080B00000AA010000000000A4A1000008B5044BC4
:1080C0001BB104490448AFF30080BDE80840CFE786
:1080D0000000000004AA0100A4A10000A3F5803A5A
:1080E000704700BF154B002B08BF114B9D46FFF793
:1080F000F5FF00218B460F461148124A121A00F074
:10810000EBF80C4B002B00D098470B4B002B00D00A
:1081100098470020002104000D000B4800F08CF867
:1081200000F0B6F82000290000F010F800F08AF8FE
:108130000000080000000000000000000000000037
:1081400000AA010058AA01006582000080B500AFB6
:10815000024800F047F90023184680BD60A10000E6
:1081600080B483B000AF7860FEE780B485B000AF24
:1081700078600B4B1B68002B02D1094B094A1A602F
:10818000074B1B68FB60064B1A687B681344044A64
:108190001360FB6818461437BD4680BC704700BFAB
:1081A0001CAA010058AA010080B485B000AFF86095
:1081B000B9607A607B6818461437BD4680BC70474A
:1081C00080B483B000AF78604FF0FF3318460C37AF
:1081D000BD4680BC704780B483B000AF7860396022
:1081E0003B684FF400525A60002318460C37BD46D6
:1081F00080BC704780B483B000AF7860012318461C
:108200000C37BD4680BC704780B485B000AFF860C5
:10821000B9607A60002318461437BD4680BC7047A9
:1082200080B485B000AFF860B9607A60002318466A
:108230001437BD4680BC7047002301461A461846D5
:1082400000F04CB908B50021044600F07BF9044B5E
:108250001868C36B03B198472046FFF781FF00BF42
:1082600070A1000038B5084B084D5B1B9C1007D06F
:10827000043B1D44013C55F804399847002CF9D1C2
:10828000BDE8384001F054BFB4A10100B0A1010025
:1082900070B50D4E0D4D761BB61006D0002455F866
:1082A000043B01349847A642F9D1094E094D761B8B
:1082B000FFF7A6FEB61006D0002455F8043B0134A3
:1082C0009847A642F9D170BDA8A10100A8A101005C
:1082D000B0A10100A8A10100830730B548D0541E09
:1082E000002A3FD0CAB2034601E0013C3AD303F86A
:1082F000012B9D07F9D1032C2DD9CDB245EA0525D7
:108300000F2C45EA054536D9A4F1100222F00F0CD6
:1083100003F1200EE6444FEA121C03F1100242E979
:10832000045542E9025510327245F8D10CF10102B0
:1083300014F00C0F03EB021204F00F0C13D0ACF18D
:10834000040323F003030433134442F8045B934211
:10835000FBD10CF003042CB1CAB21C4403F8012B6E
:108360009C42FBD130BD64461346002CF4D1F9E7A2
:1083700003461446BFE71A46A446E0E770B5044634
:1083800088B008460D4600F03BF8154EA26B0590EC
:1083900001214318CDE9066104A802210495039345
:1083A000A56801900291B2B1B5F90C309A0406D4D7
:1083B0006A6E43F4005322F40052AB816A6601AA4C
:1083C0002946204600F022FA002814BF4FF0FF3063
:1083D0000A2008B070BD204600F0F8F9E4E700BFBD
:1083E00074A10000024B01461868FFF7C7BF00BF29
:1083F000C0A101000000000000000000000000001B
:1084000090F800F06DE9024520F007016FF0000CD4
:1084100010F0070491F820F040F049804FF000047C
:108420006FF00700D1E9002391F840F000F1080057
:1084300082FA4CF2A4FA8CF283FA4CF3A2FA8CF38F
:108440004BBBD1E9022382FA4CF200F10800A4FAF6
:108450008CF283FA4CF3A2FA8CF3E3B9D1E904234A
:1084600082FA4CF200F10800A4FA8CF283FA4CF381
:10847000A2FA8CF37BB9D1E9062301F1200182FA3B
:108480004CF200F10800A4FA8CF283FA4CF3A2FA41
:108490008CF3002BC6D0002A04BF04301A4612BA4F
:1084A000B2FA82F2FDE8024500EBD2007047D1E952
:1084B000002304F00305C4F100004FEAC50514F0E1
:1084C000040F91F840F00CFA05F562EA05021CBFB2
:1084D00063EA050362464FF00004A9E770B4184C44
:1084E0002568D5F848411CB365681F2D25DC38B9CF
:1084F000AB1C0135656044F82310002070BC704748
:1085000004EB850C0228CCF88820D4F888614FF061
:10851000010202FA05F246EA0206C4F88861CCF8C4
:108520000831E5D1D4F88C311343C4F88C31DFE73E
:1085300005F5A674C5F84841D6E74FF0FF30DDE7F2
:1085400070A100002DE9F04F294B1F6883B0D7F8C8
:1085500048610190B6B18B464FF001084FF0000919
:108560007468651E0ED4013406EB8404BBF1000F61
:108570000BD0D4F800315B4507D0013D6B1CA4F152
:108580000404F3D103B0BDE8F08F73682268013BA7
:10859000AB420CBF7560C4F80090002AEDD0D6F84D
:1085A0008801D6F804A008FA05F101420BD19047E2
:1085B0007268524512D1D7F84831B342DDD01E4619
:1085C000002ECDD1DEE7D6F88C0101420BD1D4F8D4
:1085D00080100198904772685245ECD0D7F84861F6
:1085E000002EBDD1CEE7D4F880009047E0E700BF71
:1085F00070A1000000207047014900F09BBA00BF45
:10860000B9990000002070472DE9F84F2D4A4668BF
:10861000C26300240323C0E9B843074600F53B7258
:108620000423C0F8E8222146C6E902430822C6E92D
:108630000044C6E904447466B46106F15C00FFF7C7
:108640004BFEDFF884B0BD68DFF880A0DFF88090D3
:10865000DFF88080204BC6F824A0C6E9076BC6F877
:108660002890C6F82C800822EB60C5E90044C5E9D3
:1086700004446C66AC60AC61214605F15C00FFF718
:108680002BFEC5E9075BC5E909A9C5F82C80FD6883
:10869000124BEB60C5E90044C5E904446C66AC606C
:1086A000AC612146082205F15C00FFF715FE0123AD
:1086B000C5E9075BC5E90A98C5F824A0BB63BDE816
:1086C000F88F00BFF9850000A1970000C99700004E
:1086D000099800002998000009000100120002001A
:1086E00070B568224D1E02FB05F50E4605F17401BA
:1086F00000F044FA044640B100210C30C4E90016F1
:10870000A06005F16802FFF7E7FD204670BD00BFDD
:10871000274B2DE9F0411E68B36B07465BB306F5A6
:1087200038764FF00408D6E90134013B04D51EE049
:108730005A1C04F168041AD0B4F90C50013B002D06
:10874000F6D11C4B6566C4E90055C4E90253C4E97F
:108750000455A5610822294604F15C00FFF7BCFD21
:10876000C4E90C55C4E911552046BDE8F0813568CF
:108770002DB12E46D7E73046FFF746FFCFE74FF43F
:10878000D671384600F0FAF9044668B10560C0F8C1
:1087900004800C302946A06025464FF4D072FFF7C4
:1087A0009BFD34602E46BEE70C2330603B60DBE768
:1087B00070A100000100FFFF024B0349186800F0A0
:1087C000B9B900BF70A10000B9990000836B03B173
:1087D000704719E7704700BF704700BF704700BF80
:1087E000704700BF024B0349186800F083B900BF0F
:1087F000C0A10100F5850000024B0349186800F094
:1088000079B900BFC0A10100058600009368002B64
:1088100000F081802DE9F04FB1F90C300C461907BA
:10882000804683B0174698B223D523690BB310F066
:1088300002033D682BD04FF0000ADFF8B4B2564671
:108840005E453346524628BF5B464046002E4FD019
:10885000E169D4F824C0E047002852DDBB681B1A48
:108860008244361ABB60002BEAD1002003B0BDE879
:10887000F08F2146404600F0F1FF002840F034819F
:10888000B4F90C303D6898B210F00203D3D110F067
:10889000010942D14E463EB38205D4F808B040F1FA
:1088A0008180B3455A4600F2B18010F4906F40F0D9
:1088B000BE8020680192494600F0F4FCA36821685C
:1088C000019AA3EB0B030A44B246A3602260002680
:1088D000B868A0EB0A00D144B8600028C5D0B4F94C
:1088E0000C0080B2002ED7D1D5E900960835D2E72A
:1088F000D5E900A60835A3E72146404601F024F952
:1089000080B3B4F90C3043F040034FF0FF30A38143
:1089100003B0BDE8F08F002070471E46AA46994676
:1089200018461D4656B388B34A46D4E90413206856
:10893000B24228BF3246884205D9A16803EB010B39
:108940005A4500F3A780934264DCE169D4F824C05F
:108950002A464046E047B0F1000BD2DDB9EB0B09E7
:10896000CAD00120BB68A3EB0B035D44A6EB0B064A
:10897000BB60002B3FF479AF002ED4D10AF108037D
:1089800053E902569A460833002EF9D032460A219E
:10899000284600F09DFB002800F09D800130A0EBF0
:1089A0000509C1E720682369984217D86369B34273
:1089B00014D86FF00042B24228BF3246E16992FB00
:1089C000F3F2D4F824C002FB03F340464A46E047E2
:1089D000B0F1000A95DDA6EB0A0679E7B345DA4661
:1089E00028BFB2465246494600F05CFCA3682268A4
:1089F000A3EB0A035244A3602260002BEBD1214673
:108A0000404601F0A1F80028E5D07AE72068B34697
:108A100032464FE72946019200F044FC019AA368D0
:108A20009B1AA360236813442360934696E7236848
:108A30002169A3EB010B636903EB430A0AEBDA7AC2
:108A40000BF101034FEA6A0A33445345524684BF8F
:108A50009A46524643052CD51146404600F08EF802
:108A600000283BD05A462169019000F081FBA28981
:108A7000019B22F4906242F08002A28103EB0B0082
:108A80002361AAEB0B03C4F814A0A3602060B346D3
:108A900032460FE729465A4600F004FC23685B443F
:108AA00023602146404601F04FF800283FF456AFBE
:108AB00027E7404600F076FC03460028DED1216916
:108AC000404601F0CFF8B4F90C300C2223F08003BB
:108AD000C8F8002017E7721C914626E70C22B4F96B
:108AE0000C30C8F800200EE74FF0FF30BEE600BFA4
:108AF00000FCFF7F2DE9F041884600F5387700261D
:108B0000D7E90154013D0FD4A389012B05F1FF35AD
:108B100006D9B4F90E300133204601D0C0470643D0
:108B20006B1C04F16804EFD13F68002FE8D1304698
:108B3000BDE8F0812DE9F8430746884600F5387610
:108B40004FF00009D6E90154013D11D4A389012B4E
:108B500005F1FF3508D9B4F90E300133214603D0B1
:108B60003846C04749EA00096B1C04F16804EDD19E
:108B70003668002EE6D14846BDE8F8832DE9F04F6F
:108B800001F10B06162E83B0044624D8102900F2FA
:108B9000BA8000F003FC102618220220B74F3A4496
:108BA000A2F1080153688B4200F0BA805A68D96874
:108BB00022F003021A449D68E9608D60516841F01B
:108BC00001012046516003F1080500F0E9FB284649
:108BD00003B0BDE8F08F36F0070600F19480B14293
:108BE00000F2918000F0DAFBB6F5FC7FC0F09681D0
:108BF000730A00F08F80042B00F26B81B30903F13C
:108C0000390003F1380CC3009C4F3B44A3F1080525
:108C10005B689D4206D10CE0002980F22B81DB6865
:108C20009D4206D05A6822F00302911B0F29F3DD02
:108C300060463D69DFF848C265457CD06A6822F02D
:108C40000302931B0F2B00F37781002BC7E904CCA1
:108C500080F26881B2F5007F80F01681D3087968D0
:108C600001334FEA521E012202FA0EF20A4357F86C
:108C700033E0C5F808E007EBC3010839E9607A6022
:108C800047F83350CEF80C5083100121994091429F
:108C900057D8114206D120F003004900114200F1DB
:108CA0000400FAD007EBC0094D468646D5F80C8083
:108CB000454508D119E1002B80F22081D8F80C80BD
:108CC000454500F01281D8F8042022F00302931BDE
:108CD0000F2BF0DD2046D8E9025408EB060146F0E0
:108CE0000106C8F80460EC60A56043F00104C7E920
:108CF0000411C1E902CC4C6048F8023000F050FB8E
:108D000008F1080502E00C2323600025284603B083
:108D1000BDE8F08F4FF4007340204FF03F0C73E735
:108D2000D3689A4208BF02307FF440AF3D69DFF854
:108D300050C1654582D17A688310012199409142E2
:108D4000A7D9BD686B6823F00308464503D8A8EB94
:108D500006030F2B7EDCDFF82C91D7F80824D9F816
:108D600000300132334405EB080A00F02F8103F58F
:108D700080530F3323F47F6B2BF00F0B59462046A3
:108D800000F0FCFC411C024600F0EF80824500F23E
:108D9000EA80D9F804105944C9F804100B4600F0D1
:108DA0004B81D7F8081401311BBFA2EB0A0A5344C8
:108DB000C7F80824C9F8043012F0070300F0128144
:108DC000C3F108010A44C3F5805193440831A1EB73
:108DD0000B01C1F30B0A514620460192009300F0AB
:108DE000CDFC421CDDE9003200F04B81831A03EB1D
:108DF0000A0BD9F80400BA604BF001030AEB00013A
:108E0000BD425360C9F8041000F02281B8F10F0F81
:108E100040F220816B68A8F10C0020F0070003F0FD
:108E2000010303436B604FF0050C2B180F28C3E9B7
:108E300001CC00F22D8153681546D9F82C208A42C6
:108E4000D9F8302038BFC9F82C108A4238BFC9F889
:108E500030108CE0AA1943F0010346F001066E6061
:108E60002046BA60536000F09BFA0835284603B0EC
:108E7000BDE8F08FD9681A449DE600BFF0A5010057
:108E8000F8A5010020AA0100B2F5206F4FEA522395
:108E900063D3142B00F2B88003F15C01C9005B338B
:108EA00007EB010E7958AEF1080E8E4500F0918067
:108EB0004B6823F00303934202D989688E45F7D1AA
:108EC000D1F80CE07A68C5E9021ECEF80850CD60F2
:108ED000DAE6142B59D9542B00F29E80330B03F1A0
:108EE0006F0003F16E0CC3008EE60EF1010E1EF052
:108EF000030F05F108057FF4D9AE51E04244454621
:108F00005368D8F80C1043F00103536055F8083F3C
:108F10002046D9608B6000F043FAF7E6F00806F1CE
:108F200008023BE62A442046536843F0010353609D
:108F3000083500F035FAE9E6A919204646F00106A1
:108F400043F001046E60C7E90411C1E902CC4C6032
:108F5000AB5000F025FA0835D8E6930903F1390142
:108F6000C90038339CE7BD4260D0BD686B6823F010
:108F7000030B5E45ABEB060302D80F2B3FF76AAF3E
:108F8000204600F00DFA0025C0E603F15C0003F175
:108F90005B0CC30038E659F808394B4540F0968021
:108FA00010F0030F00F1FF30F5D17B6823EA0103D5
:108FB0007B60490099423FF6C4AE19B9C1E6490049
:108FC0000EF1040E1942FAD070466BE603F1100B55
:108FD000D4E69A104FF001087B6808FA02F21A43AF
:108FE0007A6070E702EB0B014942C1F30B0A51466C
:108FF00020460193009200F0C1FB431CDDE90023F1
:109000007FF4F4AE9A46F4E6542B26D8130B03F102
:109010006F01C9006E3343E7B3F5AA7F26D8F30B7F
:1090200003F1780003F1770CC300EDE5D9F80430C3
:109030005B44C9F80430B4E6CAF30B0000287FF49F
:10904000B0AEBD6808EB0B0343F001036B60F4E6C0
:109050001546F2E60123536092E7B3F5AA7F21D8C3
:10906000D30B03F17801C900773319E740F254526A
:10907000934221D8B30C03F17D0003F17C0CC300B3
:10908000C2E5083B9B44ABEB020B4FF0000AB0E695
:1090900005F10801204600F0E5FDBD68D9F804108F
:1090A0006B68CAE640F254518B420BD8930C03F123
:1090B0007D01C9007C33F3E64FF47E737F204FF0CF
:1090C0007E0CA1E54FF47E717E23E9E67B6870E7B4
:1090D00001F0FF01102A2BDB10F0070F08D010F869
:1090E000013B013A8B422DD010F0070F42B3F6D16D
:1090F000F0B441EA012141EA014122F007047FF086
:1091000000070023F0E80256083C85EA010586EADC
:10911000010685FA47F5A3FA87F586FA47F6A5FA18
:1091200087F68EB9EED1F0BC01F0FF0102F0070224
:1091300032B110F8013B013A83EA010313B1F8D1CF
:109140000020704701387047002D06BF35460338B0
:10915000073815F0010F07D1013015F4807F02BFE9
:10916000013015F4C03F0130F0BC0138704700BF3A
:10917000844641EA000313F003036DD1403A41D322
:1091800051F8043B40F8043B51F8043B40F8043BE1
:1091900051F8043B40F8043B51F8043B40F8043BD1
:1091A00051F8043B40F8043B51F8043B40F8043BC1
:1091B00051F8043B40F8043B51F8043B40F8043BB1
:1091C00051F8043B40F8043B51F8043B40F8043BA1
:1091D00051F8043B40F8043B51F8043B40F8043B91
:1091E00051F8043B40F8043B51F8043B40F8043B81
:1091F00051F8043B40F8043B51F8043B40F8043B71
:10920000403ABDD2303211D351F8043B40F8043B10
:1092100051F8043B40F8043B51F8043B40F8043B50
:1092200051F8043B40F8043B103AEDD20C3205D320
:1092300051F8043B40F8043B043AF9D2043208D018
:10924000D2071CBF11F8013B00F8013B01D30B888A
:1092500003806046704700BF082A13D38B078DD068
:1092600010F003038AD0C3F10403D21ADB071CBF3A
:1092700011F8013B00F8013B80D331F8023B20F8A4
:10928000023B7BE7043AD9D3013A11F8013B00F8DD
:10929000013BF9D20B7803704B7843708B78837065
:1092A0006046704788420DD98B1883420AD900EB7B
:1092B000020CBAB1624613F801CD02F801CD994211
:1092C000F9D170470F2A0ED8034602F1FF3C4AB18C
:1092D0000CF1010C013B8C4411F8012B03F8012F18
:1092E0006145F9D1704740EA01039B0750D1A2F1D3
:1092F000100370B501F1200C23F00F0501F1100EE1
:1093000000F11004AC441B095EF8105C44F8105CDA
:109310005EF80C5C44F80C5C5EF8085C44F8085C91
:109320005EF8045C44F8045C0EF1100EE64504F1AE
:109330001004E9D1013312F00C0F01EB031102F01C
:109340000F0400EB031327D0043C24F003064FEA7C
:10935000940C1E441C1F8E465EF8045B44F8045FA8
:10936000B442F9D10CF1010402F0030203EB8403CF
:1093700001EB840102F1FF3C4AB10CF1010C013B0D
:109380008C4411F8012B03F8012F6145F9D170BD10
:1093900002F1FF3C03469BE72246EBE7704700BF24
:1093A000704700BF2DE9F84F1746002900F098805C
:1093B00007F10B0580460C46FFF7F0FF162D5DD830
:1093C00010252A46AF425ED854F8041C21F003064B
:1093D0009642A4F1080962DABC4BD3F808C009EB45
:1093E0000600844500F09780D0F804C02CF00103FB
:1093F00003445B68DB0768D42CF0030C06EB0C031A
:10940000934247DACB0710D454F8083CA9EB030A7F
:10941000DAF8043023F003018C44B444944580F21C
:1094200011817318934280F2E88039464046FFF775
:10943000A5FB0746E0B154F8043C23F001034B447C
:10944000A0F10802934200F0D280321F242A00F2D9
:10945000F580132A00F2AC80034622461168196099
:109460005168596092689A602146404600F0FAFBC4
:109470004046FFF795FF3846BDE8F88F25F0070511
:10948000002D2A469EDA0C23C8F800300027384603
:10949000BDE8F88F1E46D0E90223D3609A60731BA3
:1094A0000F2B22D8D9F8043003F0010333434E4484
:1094B000C9F80430736843F00103736040462746DF
:1094C000FFF76EFF3846BDE8F88FC907ADD454F8F2
:1094D000083CA9EB030ADAF8041021F00301A0E725
:1094E000BDE8F84F1146FFF749BBD9F8041001F069
:1094F00001012943C9F8041009EB05014E4443F06A
:1095000001034B60736843F0010308317360404608
:1095100000F0A8FBD2E7DCF8040020F0030B06EB18
:109520000B0C05F1100084454DDAC9073FF57DAFFE
:1095300054F8081CA9EB010ADAF8041021F0030121
:109540008B44B34458453FF76CAF5746DAF80C10DC
:1095500057F8080F321F242AC160886000F2DB80B0
:10956000132A40F2D6802168CAF808106168CAF848
:109570000C101B2A00F2DF8008340AF11002216867
:10958000116061685160A16891600AEB0501ABEB65
:10959000050242F0010299604A60DAF8043003F0F3
:1095A00001031D434046CAF80450FFF7F9FE6EE779
:1095B00023680360636843601B2A68D804F10802CB
:1095C00000F108034AE709EB05029A60ACEB0503DA
:1095D00043F00103536054F8043C03F001031D43BE
:1095E000404644F8045CFFF7DBFE27464FE750F89F
:1095F000043C23F003031E4451E75746DAF80C10ED
:1096000057F8080F321F242AC16088604CD8132AEB
:1096100048D92168CAF808106168CAF80C101B2ADA
:1096200056D808340AF110021E4623681360636896
:109630005360A3689360D1463C4630E72146FFF76C
:1096400031FE11E7D0E902135746CB60996057F815
:10965000081FDAF80C30CB60321F242A99602DD80D
:10966000132A29D92368CAF808306368CAF80C306D
:109670001B2A42D808340AF1100322681A60626873
:109680005A60A2689A606646D1463C4607E7A368DE
:109690008360E368C360242A26D004F1100200F13D
:1096A0001003DBE63A46BFE7214638461E46D14660
:1096B000FFF7F8FD3C46F2E63B46DEE7214638463A
:1096C0006646D146FFF7EEFD3C46E8E6F0A5010010
:1096D000A168CAF81010E168CAF81410242A20D032
:1096E00010340AF118029FE723690361616941613F
:1096F00004F1180200F11803B0E6A368CAF81030AC
:10970000E368CAF81430242A21D010340AF118036F
:10971000B3E73A4633E721463846FFF7C3FD164B19
:1097200033E72269CAF818206269CAF81C20183485
:109730000AF1200278E7A168CAF81010E168CAF8B7
:109740001410242A0DD010340AF1180217E72369E7
:10975000CAF818306369CAF81C3018340AF12003BB
:109760008BE72269CAF818206269CAF81C201834ED
:109770000AF1200203E700BFF0A5010038B5074D4C
:109780000022044608462A60FEF7EFFC431C00D086
:1097900038BD2B68002BFBD0236038BD54AA0100D4
:1097A00010B50C46B1F90E1000F018FC002803DBD0
:1097B000236D0344236510BDA38923F48053A38143
:1097C00010BD00BF002070472DE9F0410C46B1F9F3
:1097D0000C101F46CB05054616460BD421F48051CC
:1097E000A1813B46B4F90E1032462846BDE8F0414F
:1097F00000F01EB8B4F90E100223002200F038FB6E
:10980000B4F90C10EAE700BF10B50C46B1F90E1020
:1098100000F02EFBA389421C0EBF23F4805343F4B7
:1098200080532065A38110BDB1F90E1000F080B8FF
:1098300038B50C46084D8446114620461A4600238A
:109840002B606446FEF7B0FC431C00D038BD2B688B
:10985000002BFBD0236038BD54AA010038B5334B30
:109860001B6805460C460BB19A6B12B3B4F90C3069
:1098700018079AB225D5216900292DD012F00100D0
:1098800007D00020A06060694042A06139B100208B
:1098900038BD950758BF6069A0600029F7D112064E
:1098A00058BF0846F4D543F04003A3814FF0FF3082
:1098B00038BD1846FEF78AFFB4F90C3018079AB283
:1098C000D9D4D1062AD5520714D4216943F008030C
:1098D000A3819AB20029D1D102F42070B0F5007FA3
:1098E000CCD02146284600F0D9FAB4F90C302169D1
:1098F0009AB2C3E7216B51B104F14002914204D006
:10990000284600F0AFF9B4F90C3000222263216937
:109910000022C4E9001223F02403D7E7092243F010
:1099200040032A604FF0FF30A38138BDC0A1010081
:1099300038B5074D0022044608462A60FEF740FC71
:10994000431C00D038BD2B68002BFBD0236038BDF2
:1099500054AA010070B50C46064600F065F8E36AAB
:10996000054633B1E169304698470028B8BF4FF04B
:10997000FF35A3891B0619D4216B41B104F14003C3
:10998000994202D0304600F06DF900232363616CE8
:1099900021B1304600F066F900236364FEF71AFF38
:1099A0000023A381FEF718FF284670BD21693046C9
:1099B00000F058F9E0E700BFB1B138B505460C46F4
:1099C00008B1836B4BB1B4F90C300BB9002038BD32
:1099D00021462846BDE83840BCE7FEF7F7FEB4F95B
:1099E0000C30002BF2D0F3E700207047C0B138B53F
:1099F0000C4B1D6804460DB1AB6B4BB1B4F90C3088
:109A00000BB9002038BD21462846BDE83840A1E703
:109A10002846FEF7DBFEB4F90C30002BF1D0F2E75C
:109A200000207047C0A10100B1F90C20F8B50C4628
:109A30001107074642D4636842F40062002BA281FA
:109A400059DDA56A002D54D000233E683B6093B2D7
:109A500012F4805253D1E16901233846A847421CD1
:109A600063D0A389A56A5B0705D56368C01A236B19
:109A70000BB1E36BC01AE169024600233846A847E0
:109A8000411C3ED13B68002B3BD01D2B01D0162B37
:109A900052D1A3892269226023F40063002161600E
:109AA000A381216B3E6021B304F14003994202D0AF
:109AB000384600F0D7F800202063F8BD2669C6B10B
:109AC00093B2256826609A070CBF63690023AD1B1B
:109AD000A3600CE0D4F824C0E1692B463246384636
:109AE000E047B0F1000CA5EB0C05664416DD002D37
:109AF000F0DC0020F8BDE36B002BA2DCF9E7206D61
:109B0000B1E7B4F90C302269226023F40063A38129
:109B10000022DB046260C4D52065C2E7A38943F05C
:109B200040034FF0FF30A381F8BD3B68002B98D075
:109B30001D2B06D0162B04D0A38943F04003A3812C
:109B4000F8BD3E60D5E700BF38B50D46044608B104
:109B5000836B1BB1B5F90C0030B938BDFEF736FE8A
:109B6000B5F90C000028F8D029462046BDE8384059
:109B7000FFF75ABF38B5B8B10F4B1D6804460DB199
:109B8000AB6B4BB1B4F90C0000B938BD2146284687
:109B9000BDE83840FFF748BF2846FEF717FEB4F986
:109BA0000C000028F1D0F1E7044B05491868BDE826
:109BB0003840FEF7BFBF00BFC0A1010070A1000088
:109BC000499B0000F8B5244F0C460646FFF7E6FB1C
:109BD000BA685568C4F57E630F3325F003052B443E
:109BE00023F47F6323F00F03A3F58054B4F5805F63
:109BF00007DB00213046FFF7C1FDBB682B449842CC
:109C000004D03046FFF7CCFB0020F8BD614230465F
:109C1000FFF7B4FD01300DD0104ABB682D1B45F095
:109C200001055D60136830461B1B1360FFF7B8FB2E
:109C30000120F8BD00213046FFF7A0FDBA68831A65
:109C40000F2BDEDD43F001035360054B03491B6816
:109C5000C01A0860D5E700BFF0A5010024AA0100E2
:109C6000F8A90100002961D0F8B50C460646FFF7B7
:109C700095FB54F8042C7B4FA4F1080522F0010158
:109C800005EB010CB868DCF80430604523F00303F1
:109C900000F08B80D207CCF8043032D454F8082C72
:109CA000AD1A1144AA6807F1080082426AD00CEB91
:109CB0000304D4F804E0EC68D4601EF0010FA26045
:109CC00000F0978041F001036B60CCF80010B1F513
:109CD000007F35D27A68CB084809012101338140E1
:109CE0001143796007EBC30257F83310083AC5E90E
:109CF000021247F83350CD603046BDE8F840FFF718
:109D00004FBB0CEB03025268D00710D4194407F183
:109D10000800DCF80830834273D0DCF80C20DA60ED
:109D2000936041F001036B606950D0E7704741F0E8
:109D30000103B1F5007F44F8043CCCF80010C9D30E
:109D4000B1F5206F4FEA512348D28B0903F1390056
:109D500003F13802C300F818FB580838984259D06C
:109D60005A6822F003028A4202D99B689842F7D1CE
:109D7000D868C5E902308560DD603046BDE8F8404E
:109D8000FFF70EBB0CEB03025268D20763D40B44FF
:109D9000DCE90212CA60916043F001026A60304659
:109DA000EB50BDE8F840FFF7FBBA0B44D10707D4EE
:109DB00054F8082CAD1A1344D5E90212CA60916018
:109DC00043F001026A60284ABD6012689A4293D843
:109DD000264B30461968FFF7F5FE8DE7142B0AD99C
:109DE000542B1FD80B0B03F16F0003F16E02C3005D
:109DF000B1E719448DE703F15C0003F15B02C30096
:109E0000A9E741F00103C7E90455C5E902006B6009
:109E1000695071E779689210012404FA02F20A434A
:109E20007A60A6E7B3F5AA7F06D8CB0B03F17800DA
:109E300003F17702C3008EE740F25452934206D8F2
:109E40008B0C03F17D0003F17C02C30083E74FF428
:109E50007E737E227FE741F001036B60CCF8001037
:109E60004AE700BFF0A50100FCA9010020AA0100FB
:109E700038B50C46084D8446114620461A46002344
:109E80002B606446FEF7C0F9431C00D038BD2B6838
:109E9000002BFBD0236038BD54AA01002DE9F0410E
:109EA0008B890C46990796B008D504F1430301222B
:109EB000C4E90432236016B0BDE8F081B4F90E1095
:109EC0000029064627DB6A4600F00AF9002821DB54
:109ED000019D05F47045A5F50055B5FA85F54FF4DB
:109EE00080686D094FF4006741463046FEF746FE34
:109EF000B4F90C30F0B1204AF26343F08003C4F8A7
:109F00001480A3812060206135BB3B43A38116B040
:109F1000BDE8F081A38913F0800519D04FF0400807
:109F200041463046FEF72AFE0025B4F90C302F4694
:109F30000028E0D19A05BED423F0030304F14302C4
:109F400043F002030121C4E90421A3812260B2E7A6
:109F50004FF480682F46C7E7B4F90E10304600F082
:109F6000D5F810B9B4F90C30CFE7A38923F0030377
:109F700043F001031BB2C8E7F985000070B50C4639
:109F8000B1F90E10002996B015461E4614DB6A463C
:109F900000F0A6F800280FDB019A02F47042A2F547
:109FA0000052B2FA82F24FF4806352094FF400601B
:109FB00032602B6016B070BDB4F90C10002311F0A4
:109FC0008000336004D0402218462A6016B070BD6D
:109FD0004FF480632B6016B070BD00BF38B50C46DF
:109FE000084D8446114620461A4600232B606446DD
:109FF000FEF716F9431C00D038BD2B68002BFBD0B0
:10A00000236038BD54AA01002DE9F0410E680C46CA
:10A010000546BEB137688FB1D7F80080B8F1000FA0
:10A0200008D0D8F8001009B1FFF7EEFF41462846E6
:10A03000FFF718FE39462846FFF714FE314628463A
:10A04000FFF710FE21462846BDE8F041FFF70ABEA3
:10A05000224B1B68834240D0C16C70B5054681B16C
:10A0600000268C593CB1214624682846FFF7FAFDAA
:10A07000002CF8D1E96C0436802EF2D12846FFF787
:10A08000F1FD296C11B12846FFF7ECFDD5F84841E8
:10A0900054B105F5A676B44206D021462468284678
:10A0A000FFF7E0FDA642F8D1696D11B12846FFF730
:10A0B000D9FDAB6B83B1EB6B28469847D5F8E042EE
:10A0C00054B1216811B12846FFF79EFF214628466A
:10A0D000BDE87040FFF7C6BD70BD7047C0A101006C
:10A0E00070B50C46084D03460026204611461C4616
:10A0F0002E60FEF770F8431C00D070BD2B68002B5B
:10A10000FBD0236070BD00BF54AA010038B5074DD5
:10A110000022044608462A60FEF76CF8431C00D073
:10A1200038BD2B68002BFBD0236038BD54AA01003A
:0CA13000F8B500BFF8BC08BC9E467047A4
:10A13C003A3D0A3D0F3D243D323D023D053D133D68
:10A14C000D3D0C3D233D113D263D013D173D083D88
:10A15C00093D000048656C6C6F2C20576F726C6465
:10A16C0021000000C8A101000A0000003A3D0A3D90
:10A17C000F3D243D323D023D053D133D0D3D0C3D53
:10A18C00233D113D263D013D173D083D093D000095
:08A19C0040DFFF7F010000001D
:04A1A40000000000B7
:020000021000EC
:08A1A80041800000BD800000B1
:04A1B0009580000096
:10A1B8000000000000000000C8A10100000000002D
:10A1C80000000000B4A401001CA5010084A5010042
:10A1D8000000000000000000000000000000000077
:10A1E8000000000000000000000000000000000067
:10A1F8000000000000000000000000000000000057
:10A208000000000000000000000000000000000046
:10A218000000000000000000000000000000000036
:10A228000000000000000000000000000000000026
:10A238000000000000000000000000000000000016
:10A248000000000000000000000000000000000006
:10A2580000000000000000000000000000000000F6
:10A2680000000000000000000100000000000000E5
:10A278000E33CDAB34126DE6ECDE05000B000000AA
:10A2880000000000000000000000000000000000C6
:10A2980000000000000000000000000000000000B6
:10A2A80000000000000000000000000000000000A6
:10A2B8000000000000000000000000000000000096
:10A5F800F0A50100F0A50100F8A50100F8A50100EB
:10A6080000A6010000A6010008A6010008A6010096
:10A6180010A6010010A6010018A6010018A6010046
:10A6280020A6010020A6010028A6010028A60100F6
:10A6380030A6010030A6010038A6010038A60100A6
:10A6480040A6010040A6010048A6010048A6010056
:10A6580050A6010050A6010058A6010058A6010006
:10A6680060A6010060A6010068A6010068A60100B6
:10A6780070A6010070A6010078A6010078A6010066
:10A6880080A6010080A6010088A6010088A6010016
:10A6980090A6010090A6010098A6010098A60100C6
:10A6A800A0A60100A0A60100A8A60100A8A6010076
:10A6B800B0A60100B0A60100B8A60100B8A6010026
:10A6C800C0A60100C0A60100C8A60100C8A60100D6
:10A6D800D0A60100D0A60100D8A60100D8A6010086
:10A6E800E0A60100E0A60100E8A60100E8A6010036
:10A6F800F0A60100F0A60100F8A60100F8A60100E6
:10A7080000A7010000A7010008A7010008A7010091
:10A7180010A7010010A7010018A7010018A7010041
:10A7280020A7010020A7010028A7010028A70100F1
:10A7380030A7010030A7010038A7010038A70100A1
:10A7480040A7010040A7010048A7010048A7010051
:10A7580050A7010050A7010058A7010058A7010001
:10A7680060A7010060A7010068A7010068A70100B1
:10A7780070A7010070A7010078A7010078A7010061
:10A7880080A7010080A7010088A7010088A7010011
:10A7980090A7010090A7010098A7010098A70100C1
:10A7A800A0A70100A0A70100A8A70100A8A7010071
:10A7B800B0A70100B0A70100B8A70100B8A7010021
:10A7C800C0A70100C0A70100C8A70100C8A70100D1
:10A7D800D0A70100D0A70100D8A70100D8A7010081
:10A7E800E0A70100E0A70100E8A70100E8A7010031
:10A7F800F0A70100F0A70100F8A70100F8A70100E1
:10A8080000A8010000A8010008A8010008A801008C
:10A8180010A8010010A8010018A8010018A801003C
:10A8280020A8010020A8010028A8010028A80100EC
:10A8380030A8010030A8010038A8010038A801009C
:10A8480040A8010040A8010048A8010048A801004C
:10A8580050A8010050A8010058A8010058A80100FC
:10A8680060A8010060A8010068A8010068A80100AC
:10A8780070A8010070A8010078A8010078A801005C
:10A8880080A8010080A8010088A8010088A801000C
:10A8980090A8010090A8010098A8010098A80100BC
:10A8A800A0A80100A0A80100A8A80100A8A801006C
:10A8B800B0A80100B0A80100B8A80100B8A801001C
:10A8C800C0A80100C0A80100C8A80100C8A80100CC
:10A8D800D0A80100D0A80100D8A80100D8A801007C
:10A8E800E0A80100E0A80100E8A80100E8A801002C
:10A8F800F0A80100F0A80100F8A80100F8A80100DC
:10A9080000A9010000A9010008A9010008A9010087
:10A9180010A9010010A9010018A9010018A9010037
:10A9280020A9010020A9010028A9010028A90100E7
:10A9380030A9010030A9010038A9010038A9010097
:10A9480040A9010040A9010048A9010048A9010047
:10A9580050A9010050A9010058A9010058A90100F7
:10A9680060A9010060A9010068A9010068A90100A7
:10A9780070A9010070A9010078A9010078A9010057
:10A9880080A9010080A9010088A9010088A9010007
:10A9980090A9010090A9010098A9010098A90100B7
:10A9A800A0A90100A0A90100A8A90100A8A9010067
:10A9B800B0A90100B0A90100B8A90100B8A9010017
:10A9C800C0A90100C0A90100C8A90100C8A90100C7
:10A9D800D0A90100D0A90100D8A90100D8A9010077
:10A9E800E0A90100E0A90100E8A90100E8A9010027
:08A9F800FFFFFFFF0000020059
:04000003000080E594
:00000001FF
